:02000000962B3D
:10000600103083120313FD00FD0B072800000800C3
:10001600083083120313FC002330FD00FD0B11286A
:06002600FC0B112808008C
:04002C0000000800C8
:1000300083120317A01B1F280313881321280313FF
:1000400088170317201B27280313081329280313D5
:1000500008170317A01A2F28031388123128031337
:1000600088160317201A3728031308123928031398
:100070000816831664183F288312871641288312B6
:1000800087128717162087130317A0194A2803130E
:1000900088134C28031388170317201952280313B9
:1000A00008135428031308170317A0185A2803131A
:1000B00088125C280313881603172018622803137C
:1000C0000812642803130816831664186A2883121A
:1000D00087166C28831287128717162087138316BA
:0C00E000641C74280B2075280320080005
:1000EC0083120313F801F9011030FC00710DF80DA7
:1000FC00F90D7408F8027508031C750FF902031842
:10010C008E287408F80775080318750FF907031083
:0A011C00F00DF10DFC0B7C2808002B
:10012600831603136410831203171B08A0001820FC
:06013600831664140800AA
:0E013C00073083120313FD00FD0BA2280800FC
:10014A00831203179E0105301E020318B3281E08E6
:10015A001D078400203080009E0AA8281E081D075B
:10016A00840080019E031E081D079F000A30F400C8
:10017A00F5011B08F0001C08F10076207808F00051
:10018A007908F1003030F00703171F08840070085F
:10019A0080000A30F400F5011B08F0001C08F10089
:1001AA007620700803179B0071089C0000307106C6
:1001BA00031DE12800307006031DE428E6289E038B
:0401CA00B828080049
:1001CE00F92880308312031794000C29C030940054
:1001DE000C29943094000C29D43094000C298030D2
:1001EE0094000C29831203171408013A0319E82806
:1001FE001408023A0319ED281408033A0319F028DB
:10020E001408043A0319F328F6281503F00014080D
:10021E00F007700894007008A00018208316641070
:10022E00EE016E08831203171607840000080319E7
:10023E002C29831603136E088312031716078400E6
:10024E0000089B009320EE0A1829831603136414EA
:02025E00080096
:1002600083120317970198011408990015089A0042
:1002700080301506F00080307002031D41290030E7
:10028000140203184F290130970000309800140819
:10029000003C99001508031C013E9A019A021908B6
:1002A0009B001A089C0016089D00A52006308316A6
:1002B0000313EE000030EF006F08003C031D6229BD
:1002C0006E08003C031885296E0883120317160771
:1002D000F2000130831603136E02F0000030031C9D
:1002E000013E6F02F10070088312031716078400A5
:1002F0000008F00072088400700880000130831646
:100300000313EE02031CEF035C2983120317160884
:10031000840020308000170818040319AF298316C1
:100320000313EE01EF016E08831203171607840012
:100330000008203A031DA22983160313EE0A0319AD
:10034000EF0A9329831603130130EE02031CEF0317
:100350006E0883120317160784002D3080000800F2
:10036000831203139F01C0309F046F09F0007008CF
:1003700083169F051F179F176E08F000F00D701071
:10038000F00D7010F00D7010700883129F041F1490
:100390009E201F151F1DCE290000CA291F101E08F0
:1003A000F100F00183161E08F0040030F10408008B
:1003B00083120313FB01FA01F9018030F800F10CFC
:1003C000F00C031CEC297408F90775080318750F65
:1003D000FA070318FB0A0310F01FF4297408FA0740
:1003E00075080318750FFB07FB0CFA0CF90CF80CD9
:1003F000031CDF297B08F3007A08F2007908F1007A
:060400007808F00008007E
:0E0406008316031363088A0062088200080050
:1004140083160313EE01B0217008D9007108DA00C5
:100424007008F2007108F300F30CF20CF313731B61
:10043400F31701307202F0000030031C013E730216
:10044400F10070088312A0007108A100700803175E
:10045400940071089500DB3096003021023094003E
:100464000130950022309600E7200230FC004B302A
:10047400FD00FD0B3B2AFC0B3B2A023083120317C1
:1004840094000A309500DF309600E7200230FC002B
:0E0494004B30FD00FD0B4C2AFC0B4C2A0800DF
:1004A200831603138710831212150C309D04080063
:1004B200831603131208013EF000F1010318F10A3A
:1004C2006D08F400F501D8210630F2007008F4003E
:1004D2007108F50072080319732AF50CF40CF51370
:1004E200FF3E6C2A0430F1007408F0007108031911
:1004F2007E2AF00D7010FF3E782A30307005F3002E
:100502007408F0007508F100F10CF00CF113F10C15
:10051200F00CF113700895000F30970573089704DB
:020522000800CF
:0E052400831603138714F03083129D05080020
:0E053200831603130715F03083129705080097
:10054000831603131208013EF000F1010318F10AAB
:100550006D08F400F501D8210630F2007008F400AF
:100560007108F50072080319BA2AF50CF40CF5139A
:10057000FF3EB32A0430F1007408F000710803193B
:10058000C52AF00D7010FF3EBF2A30307005F30011
:100590007408F0007508F100F10CF00CF113F10C87
:1005A000F00CF11370089B000F309D0573089D043B
:0205B000080041
:1005B200FF3083160313E500FF30E600FF30E7004B
:1005C200FF3083129F01C0309F046F09F000700852
:0E05D20083169F051F179F1783121F14080022
:1005E000831203132230FC00F801F901FA01FB0128
:1005F000FC030319262B0310FB0CFA0CF90CF80C66
:10060000F30CF20CF10CF00C031CF82AFC03031998
:10061000182B7408F80775080318750FF907760882
:100620000318760FFA0777080318770FFB07FC2AE1
:100630007408F80775080318750FF907760803188A
:0E064000760FFA0777080318770FFB070800FC
:0C064E0083120313950117129712080085
:10065A00831603130711831212150C30970408002E
:10066A008316031387138712081288120813881334
:10067A0083128713871288130813881208120B2013
:10068A000B200B20881608168717162087130B20B5
:10069A008717162087130B208717162087130B201E
:1006AA0008128717162087130B208717162087131F
:1006BA00881288178717162087130B2088130816A5
:1006CA0087171620871308128717162087130B20FF
:1006DA0087171620871308168717162087130B20EB
:1006EA0008128717162087138817081788160816FE
:0E06FA008717162087130B2083166414080040
:1007080003228A110A128000840AE20A0319E30A02
:08071800F003031D842B08000F
:0C072000831203139B011D129D120800A0
:10072C000827073083160313EC0005167E30860568
:10073C00831206108613831607138312071383166E
:10074C000710831207144130FC00EE30FD00FD0B46
:10075C00AD2BFC0BAD2B000035231A30FC00F83010
:10076C00FD00FD0BB72BFC0BB72B0000D9221A3068
:10077C00FC00F830FD00FD0BC12BFC0BC12B000065
:10078C0012109210C7308316920027231210921069
:10079C00C730831692009023831280302106F0001C
:1007AC0080307002031DDC2B323020020318092E1E
:1007BC0004308316EE00B0210030F11BFF30F20044
:1007CC00F3008830F4001330F500F601F701F02245
:1007DC000A30F8007008F4007108F5007208F60091
:1007EC007308F70078080319042CF70CF60CF50CB9
:1007FC00F40CF713771BF717FF3EF92B74088316CD
:10080C00E8007508E9007608EA007708EB0080300C
:10081C007706F00080307002031D1E2C003076022B
:10082C00031D1E2C09307502031D1E2C6030740232
:10083C00031C582C83168030F00080306B0670023D
:10084C00031D322C6A08003C031D322C69080A3C3B
:10085C00031D322C6808283C031C582C6C08003AE9
:10086C000319582CEC019922922201300317A00095
:10087C0018200230FC004B30FD00FD0B432CFC0B10
:10088C00432C01300317940001309500283096005A
:10089C00E7200230FC004B30FD00FD0B532CFC0B11
:1008AC00532C072E83168030F00080306B067002BC
:1008BC00031D6A2C6A08003C031D6A2C69080A3C5B
:1008CC00031D6A2C6808283C0318A72C8030F00004
:1008DC0080306B067002031D7D2C6A08003C031DE2
:1008EC007D2C69080D3C031D7D2C6808483C031CBD
:1008FC00A72C6C08013A0319A72C0130EC0021300D
:10090C00ED0059222D23922201300317A00018204C
:10091C000230FC004B30FD00FD0B922CFC0B922C9A
:10092C0001300317940001309500CC309600E7207D
:10093C000230FC004B30FD00FD0BA22CFC0BA22C5A
:10094C00072E8030F00080306B067002031DB82C2F
:10095C006A08003C031DB82C69080D3C031DB82C1B
:10096C006808483C0318F52C8030F00080306B068A
:10097C007002031DCB2C6A08003C031DCB2C6908AC
:10098C00103C031DCB2C6808683C031CF52C6C0830
:10099C00023A0319F52C0230EC004230ED005922DA
:1009AC002D23922201300317A00018200230FC00E6
:1009BC004B30FD00FD0BE02CFC0BE02C0130031741
:1009CC00940001309500BE309600E7200230FC0008
:1009DC004B30FD00FD0BF02CFC0BF02C072E803067
:1009EC00F00080306B067002031D062D6A08003C77
:1009FC00031D062D6908103C031D062D6808683C74
:100A0C000318302D6C08033A0319302D0330EC0019
:100A1C006430ED0059222D23922201300317A000DF
:100A2C0018200230FC004B30FD00FD0B1B2DFC0B85
:100A3C001B2D01300317940001309500AF30960048
:100A4C00E7200230FC004B30FD00FD0B2B2DFC0B86
:100A5C002B2D072E80306B06F00080307002031DAA
:100A6C00412D00306A02031D412D06306902031D21
:100A7C00412D40306802031C7E2D80306B06F00047
:100A8C0080307002031D542D00306A02031D542D5A
:100A9C0009306902031D542D6030680203187E2D45
:100AAC006C08043A03197E2D0430EC002130ED0063
:100ABC00A0225122992201300317A00018200230E5
:100ACC00FC004B30FD00FD0B692DFC0B692D01303A
:100ADC00031794000130950052309600E720023045
:100AEC00FC004B30FD00FD0B792DFC0B792D072EF6
:100AFC0080306B06F00080307002031D8F2D0030AB
:100B0C006A02031D8F2D03306902031D8F2D2030C7
:100B1C006802031CCC2D80306B06F0008030700214
:100B2C00031DA22D00306A02031DA22D063069029E
:100B3C00031DA22D403068020318CC2D6C08053A19
:100B4C000319CC2D0530EC004230ED00A0225122CF
:100B5C00992201300317A00018200230FC004B3002
:100B6C00FD00FD0BB72DFC0BB72D013003179400C6
:100B7C000130950060309600E7200230FC004B30CD
:100B8C00FD00FD0BC72DFC0BC72D072E80306B060F
:100B9C00F00080307002031DDD2D00306A02031D51
:100BAC00DD2D03306902031DDD2D20306802031892
:100BBC00072E6C08063A0319072E0630EC00643039
:100BCC00ED00A02251229922512201300317A000DE
:100BDC0018200230FC004B30FD00FD0BF32DFC0BFC
:100BEC00F32D01300317940001309500333096003B
:100BFC00E7200230FC004B30FD00FD0B032EFC0BFC
:100C0C00032E0A22D22B013083120317A0001820C6
:100C1C000230FC004B30FD00FD0B122EFC0B122E93
:100C2C000130031794000130950043309600E72003
:100C3C00023083120317940001309500A030960007
:100C4C00E7200230FC004B30FD00FD0B2B2EFC0B83
:100C5C002B2E831206148030860699229222823023
:100C6C00FC00DD30FD00FD0B392EFC0B392E000095
:100C7C0000008316EE01B0217008D9007108DA006B
:100C8C007008F3007108F400F40CF30CF413741BEB
:100C9C00F41701307302F1000030031C013E7402A2
:100CAC00F20071088312A0007208A10007308316AD
:100CBC00EC008030F000803072067002031D682E4C
:100CCC007108323C031C092E013083120317A0005B
:100CDC0018200230FC004B30FD00FD0B732EFC0B7A
:060CEC00732ED22B782EBE
:100E100020308400503083120313F0007E3083169C
:100E2000E2000630E3008423A03084003930F00073
:0E0E3000CE308316E2000630E3008423080073
:040CFC00003400348C
:0C0D0000543465346D3470343D340034DC
:100D0C004D346F3474346F347234203448346F344F
:060D1C006C346434003465
:100D22004D346F3474346F3472344F346E34523401
:100D320069346734683474342B342B342B340034E4
:100D4200543468346534723465342734733420344F
:0E0D5200613420346634693472346534003400
:100D60004D346F3474346F3472344F346E345234C3
:0C0D700069346734683474342B34003468
:100D7C004D346F3474346F3472344F346E345234A7
:0E0D8C0069346734683474342B342B340034EB
:020D9A000F3414
:100D9C004D346F3474346F347234203453346834BB
:0E0DAC007534743464346F3477346E3400342C
:100DBA004D346F3474346F3472344F346E344C346F
:0E0DCA006534663474342B342B342B340034EF
:100DD8004D346F3474346F3472344F346E344C3451
:0C0DE8006534663474342B342B34003432
:100DF4004D346F3474346F3472344F346E344C3435
:0A0E04006534663474342B34003476
:02400E004A2F37
:00000001FF
